:100000000000012045000000410000004100000008
:10001000410000004100000041000000000000001D
:10002000000000000000000000000000410000008F
:1000300041000000000000004100000041000000FD
:10004000FEE700BF08B54FF0E022D2F8883D43F448
:100050007003C2F8883DBFF34F8FBFF36F8F114A13
:1000600011498A420CD20139891A104B21F003013F
:100070000431194453F8040B42F8040B8B42F9D1B4
:100080000B4B0C4A93420AD2013AD21A22F00302D5
:1000900004321A44002143F8041B9342FBD100F0C0
:1000A00083F8FEE70000002000000020900200001E
:1000B00000000020000000204FF0A0434FF44072E9
:1000C00001204FF4C041C3F83407C3F83807C3F820
:1000D0002C27C3F83027C3F86027C3F86427C3F878
:1000E0001817C3F8081570470C4A0023C2F80031EE
:1000F0000123D2F800111360D2F80031002BFBD09D
:100100000023C2F80031D2F8003102F5A16393ED6B
:10011000000A0123BAEECF0A5360704700C00040C6
:10012000DFED177A9FED177A9FED176ADFED176AFB
:10013000A0EE277ADFED167AA0EE867AE0EE267A38
:100140009FED146ADFED146A9FED140AE0EE867AE3
:10015000B4EEE67AF1EE10FA9FED116AD8BFB0EE78
:10016000667AA7EE060AF4EEE67A9FED0E7AF1EED5
:1001700010FAD8BFF0EE667AA7EE870A704700BF84
:1001800017B7113EA2B447C03A235A3F89D29EBE48
:100190000B24A83D2B87D63E000000003108AC3C64
:1001A0006D568D3F516BFABE70B54FF0A0464FF4BF
:1001B00040734FF4C04101244FF4005082B0DFED92
:1001C000304AC6F834472F4AC6F838472E4DC6F88D
:1001D0002C37C6F83037C6F86037C6F86437C6F82B
:1001E0001817C6F80815C6F808052848B5EE005ACD
:1001F000F0EE005A0021C2F80011D2F8003114606C
:10020000D2F80031002BFBD0C2F80011D2F8003137
:1002100002F5A16393ED000A5460D6F81035B8EEEC
:10022000C00A13F4006F0CBFF0EE650AF0EE640A2A
:1002300020EE050AFFF774FFB5EEC00AF1EE10FAE2
:100240000ADC0191019BAB42D5DC019B0133019398
:10025000019BAB42F9DDCEE74FF40053C6F80C35F5
:100260000091009B834205DC009B01330093009BBF
:100270008342F9DD4FF40053C6F80835E1E700BFCB
:100280000000000000C000407F841E003F4B4C0077
:0400000300000045B4
:00000001FF
